:020000040800F2
:1000000080060020CD01000865050008F703000800
:1000100061050008C1020008010700080000000097
:10002000000000000000000000000000890500083A
:10003000C502000800000000670500089D060008D2
:10004000E7010008E7010008E7010008E7010008F0
:10005000E7010008E7010008E7010008E7010008E0
:10006000E7010008E7010008E7010008E7010008D0
:10007000E7010008E7010008E7010008E7010008C0
:10008000E7010008E7010008E7010008E7010008B0
:10009000E7010008E7010008E7010008E7010008A0
:1000A000E7010008E7010008E7010008E701000890
:1000B000E7010008E7010008E7010008E701000880
:1000C000E7010008E7010008E7010008E701000870
:1000D000E7010008E7010008E7010008E701000860
:1000E000E7010008E7010008E7010008E701000850
:1000F000E7010008E7010008E7010008E701000840
:10010000E7010008E7010008E7010008E70100082F
:10011000E7010008E7010008E7010008E70100081F
:10012000E7010008E7010008E7010008E70100080F
:1001300000F002F800F03AF80AA090E8000C8244BF
:100140008344AAF10107DA4501D100F02FF8AFF29C
:10015000090EBAE80F0013F0010F18BFFB1A43F0A5
:1001600001031847E806000008070000103A24BF02
:1001700078C878C1FAD8520724BF30C830C144BF0C
:1001800004680C607047000000230024002500264E
:10019000103A28BF78C1FBD8520728BF30C148BFEA
:1001A0000B6070471FB51FBD10B510BD00F031F8D2
:1001B0001146FFF7F7FF00F0EDFA00F04FF803B437
:1001C000FFF7F2FF03BC00F057F800000948804732
:1001D00009480047FEE7FEE7FEE7FEE7FEE7FEE729
:1001E000FEE7FEE7FEE7FEE704480549054A064B41
:1001F00070470000A10600083101000880000020BF
:100200008006002080020020800200207047704796
:100210007047754600F02CF8AE4605006946534617
:1002200020F00700854618B020B5FFF7DDFFBDE8D8
:1002300020404FF000064FF000074FF000084FF04D
:10024000000B21F00701AC46ACE8C009ACE8C009DE
:10025000ACE8C009ACE8C0098D46704710B504464B
:10026000AFF300802046BDE81040FFF7A8BF0000B4
:10027000004870471C00002001491820ABBEFEE773
:10028000260002007047000008B50121082000F098
:100290006BF94FF48070ADF8000010208DF803006A
:1002A00003208DF802006946044800F00CF84FF472
:1002B0008071024800F09BF808BD0000000C01406E
:1002C00000BFFEE770472DE9F041024600250026F9
:1002D000002000230024002791F803C00CF00F0534
:1002E00091F803C00CF0100CBCF1000F03D091F892
:1002F00002C04CEA050591F800C0BCF1000F31D0F6
:10030000146800202BE04FF0010C0CFA00F3B1F858
:1003100000C00CEA03069E4220D183004FF00F0C70
:100320000CFA03F7BC4305FA03FC4CEA040491F809
:1003300003C0BCF1280F06D14FF0010C0CFA00FCF1
:10034000C2F814C00AE091F803C0BCF1480F05D10F
:100350004FF0010C0CFA00FCC2F810C0401C082839
:10036000D1D31460B1F800C0BCF1FF0F34DD546884
:1003700000202EE000F1080C4FF0010808FA0CF301
:10038000B1F800C00CEA03069E4221D183004FF071
:100390000F0C0CFA03F7BC4305FA03FC4CEA040407
:1003A00091F803C0BCF1280F05D100F1080C08FA40
:1003B0000CF8C2F8148091F803C0BCF1480F07D1C3
:1003C00000F1080C4FF0010808FA0CF8C2F8108090
:1003D000401C0828CED35460BDE8F08102460020BE
:1003E00093680B400BB1012000E000207047416191
:1003F00070470161704700BFFEE7000008B50121AA
:10040000442000F0B1F81C20ADF8000048208DF821
:10041000030003208DF8020069460748FFF753FFE9
:100420000120ADF8000028208DF80300694603483C
:10043000FFF749FF08BD0000001801400008014017
:1004400010B5044614B101202F4908702E480078D9
:1004500000283CD010212D48FFF7C0FF78B10821BB
:100460002A48FFF7BBFF50B104212848FFF7B6FF29
:1004700028B101212648FFF7B1FF012827D100202C
:10048000214908700A2000F05FF910211F48FFF78A
:10049000A5FF08B9012010BD08211C48FFF79EFFE9
:1004A00008B90220F7E704211848FFF797FF08B9B9
:1004B0000320F0E701211648FFF790FF012801D142
:1004C0000420E8E70120104908700020E3E710212C
:1004D0000E48FFF783FF012813D108210B48FFF7CF
:1004E0007DFF01280DD104210848FFF777FF01287F
:1004F00007D101210648FFF771FF10B90120024919
:1005000008700020C7E70000140000200018014018
:100510000008014008B50121482000F025F82020FE
:10052000ADF8000010208DF8030003208DF80200C4
:1005300069460948FFF7C7FE20210748FFF759FF22
:100540002020ADF8000069460448FFF7BCFE2021DA
:100550000248FFF74EFF08BD000C014000180140A3
:1005600000BFFEE77047704729B1064A926902430F
:10057000044B9A6104E0034A92698243014B9A61F9
:100580007047000000100240704710B500F002F8FC
:1005900010BD00000CB500200190009033480068A9
:1005A00040F480303149086000BF3048006800F4F2
:1005B000003000900198401C0190009818B90198F3
:1005C000B0F5A06FF1D12948006800F4003010B1F7
:1005D0000120009001E0002000900098012843D104
:1005E0002348006840F01000214908600846006870
:1005F00020F0030008600846006840F00200086030
:100600001A484068194948600846406848600846EA
:10061000406840F4806048600846406820F47C10E0
:1006200048600846406840F4E810486008460068A2
:1006300040F08070086000BF0C48006800F0007057
:100640000028F9D00948406820F0030007494860B5
:100650000846406840F00200486000BF0348406818
:1006600000F00C000828F9D10CBD00000010024079
:1006700000200240042808D14FF0E021096941F030
:1006800004014FF0E022116107E04FF0E021096919
:1006900021F004014FF0E022116170477047000023
:1006A00010B51348006840F0010011490860084681
:1006B0004068104908400E494860084600680E49E5
:1006C00008400B4908600846006820F48020086054
:1006D0000846406820F4FE0048604FF41F00886020
:1006E000FFF753FF4FF000600449086010BD0000A1
:1006F000001002400000FFF8FFFFF6FE08ED00E0EA
:1007000000BFFEE710B56FF00400FFF7B3FF0A4823
:1007100000680A49B0FBF1F0094908700846007802
:1007200000EB4001C1EBC0104FF6FF7101EAC000C1
:100730000449088010BD00000000002000127A006B
:1007400016000020180000200146114A12884A4372
:100750004FF0E0235A6100229A611A46126942F072
:1007600001021A6100BF4FF0E022106900F001029F
:100770001AB100F48032002AF5D04FF0E02212695D
:1007800022F001024FF0E0231A6100229A617047C3
:100790001800002008B5FFF7B5FFFFF7BBFEFFF715
:1007A00073FDFFF72BFE00202549086046E000207E
:1007B000FFF746FE00909DF8000000283BD09DF812
:1007C0000000012806D002280FD0032816D00428E4
:1007D0002FD11CE01A480C30006808B9012000E055
:1007E000002017490C31086024E01548006808B95A
:1007F000012000E00020124908601BE01148006859
:1008000008B9012000E000200E49086012E00C4801
:10081000006808B9012000E00020094908600A4882
:10082000D0F8940108B9012000E0002005490860D3
:1008300000E000BF02E00A20FFF786FFB7E70000F4
:100840009481214294012342000023426C08000855
:10085000000000201C0000006C010008880800084F
:100860001C000020640600008801000800A24A0461
:100870000000000000000000010203040607080950
:0808800001000000000000006F
:0400000508000131BD
:00000001FF
